:400000000010002011000000550800005508000008B500F021FCC04610B5184C23688022D20213432360182001F032F82268144B13402360134A144B1A601022134B1A60A0
:400040001032134B1A601032124B1A6080231B06114A1360114A1360114A124B1A60124A124B1A600920124900F0B8FF092000F09FFF00220F4B1A6010BDC04600010B4091
:40008000FFFFFBFF0600008004010B40080202400C0202403002024008010B40000002400E000080400002401700008080000240A11200000C020B4010B572B601223B4BC1
:4000C0001A70002410E03A4863001A195200821891881B195B001A5AC31858880004104300F01CFC0134E4B2012CECD93049081C0C30243100F0F8FB802252002D4B1A8054
:4001000001202D4B18702D4A2D4B1A602D4A2E4B1A60EE2212022D4B1A602D4A2D4B1A6099231B042C4A1360802109062B4A11602B4A13602B492C4A11602C4A13600223A1
:400140002B4A13602B4A13602B4B197802220A431A702A4C22783C218A4328390A432270197816220A431A70B122254B1A60254A254B1A60C0221202244B1A60244B1860B7
:40018000AA22244B1A60244A244B1A60D8221201234B1A600D23234A13602349234A1160234A1360FFF738FF10BDC0461C700F40AC1A000000600F4002600F400F00EE0006
:4001C0000000014030303030040001400C000140FFFF00001000014000500F4004500F4010500F40000080C018500F4030500F402000004000800F4000700F4001700F40B8
:4002000000000440064C2200080004400C0004401800044000010440300CC3000801044008030440000404408E0D0000080404401804044010B5064C2378002B07D1054B96
:40024000002B02D0044800E000BF0123237010BDF800002000000000A81A000008B5084B002B03D00748084900E000BF07480368002B00D108BD064B002BFBD09847F9E76A
:4002800000000000A81A0000FC000020C80000200000000000B583B000226B46DA7162B600F054FA00F0F6FB00F05AF8642000F0CDFE00F06BF800F09BF800F0B3F800F059
:4002C00087F900F02DFEC82000F0DCFD00F040FB00201F4900F068FA01201E4900F064FA1D4B1B78012B16D100221B4B1A7000F06FF96B46DA1DDB790133DBB21370137894
:40030000112B04D100F08EF800226B46DA7100200F4900F049FA104B5B78012B08D100220D4B5A7000F01CF80220094900F03CFA094B9B78012B08D10022074B9A7000F07E
:4003400025F80120054900F02FFA00F07BF9C7E7510F0000E97E010068010020A21E000010B582B001AC0023237000F021FC064B1868211C0122002300F076FC00F000FCAC
:400380008307FBD502B010BDCC00002000B583B000F00EFC154B186801A90422002300F0D9FC00F0EDFBC307FBD500F001FC01A90B781B0248781B189A00D2185301D3189F
:4003C00080221202944663441B14283BDBB2074803718B781B02C9785A186423534363441B14DBB2437103B000BDC046CC00002082B000226B46DA710AE06B46DA1DDB7945
:40040000DBB200200649C85413780133DBB213706B4607331B78DBB2102BEED902B0704770010020F0B5474680B482B06B460022DA71DA79D2B2624987208854DA7901328D
:40044000D2B2DA71DA79D2B278308854DA790132D2B2DA715B4B1B785AB2002A0ADA6A46D11DD279D2B2BF24554884540A780132D2B20A705BB2DA179D1855400A2D20DDB6
:400480006B46DC1DDE79F6B2281C0A2101F0ECF94D4B98461B5CDBB2494FBB5523780133DBB223702678F6B2281C0A2101F0C2FA43465B5CDBB2BB5523780133DBB223700F
:4004C0000BE06A46D179C9B23F48C35CDBB23C484354D3790133DBB2D3716B46D979C9B2374A9C205054D9790131C9B2D971D979C9B22A305054D9790131C9B2D971D979EF
:40050000C9B239305054D9790131C9B2D971D979C9B289245454D9790131C9B2D971D979C9B25054DA790132D2B2DA71274B1C780A2C22D96B46DD1DDE79F6B2201C0A2171
:4005400001F002F9C0B2204B98461B5CDBB21C4FBB552B780133DBB22B702E78F6B2201C0A2101F077F9C9B243465B5CDBB2BB552B780133DBB22B700CE06B46DA1DDB7901
:40058000DBB21149095DC9B20D48C15413780133DBB213706B46DA79D2B209499C208854DA790132D2B2DA71DA79D2B207308854DA790132D2B2DA7102B004BC9046F0BD3F
:4005C00070010020D0000020D4000020D100002082B06B460022DA71DA710EE06B46DA1DDB79DBB21178C9B21448415CC9B21448C15413780133DBB213706B4607331B784D
:40060000DBB2032BEAD900226B46DA710DE06B46DA1DDB79DBB2117801310848415CC9B2C15413780133DBB213706B4607331B78DBB20F2BEBD902B07047C0467001002098
:400640008401002010B582B000226B46DA712FE06B4607331B78DBB2194AD35C002B05D16B4607331B78DBB2FF21D1546B4607331B78DBB2124AD05CC0B200F079F900F06C
:4006800085F9104B1B6880221202134000D00123C318002BF3D16B46DC1DD879C0B200F04FFCC82000F0EAFC23780133DBB223706B4607331B78DBB2032BC9D902B010BD68
:4006C000840100200802064010B582B072B600226B46DA712DE06B4607331B78DB00194A9B5CDBB2FF2B1ED06B4607331B78DB00D3185B68002B08D06B4607331B78DB0000
:40070000D3185A68013A5A600DE06B46D91DDB790C4ADB009B5CDBB201240B48C4540B78DB00FF2199546B46DA1DDB790133DBB213706B4607331B78DBB2042BCBD962B649
:4007400002B010BD400100206801002000B583B000F0E6FB114800F019FE6B460022DA71DA7112E06B46D9790D48C900FF220A54DA79D200821800215160DA79D2B2094843
:400780008154DA790132D2B2DA716B4607331B78DBB2042BE6D903B000BDC046C9060000400100206801002010B582B072B600226B46DA7119E06B4607331B78DB00234AEB
:4007C0009B5CDBB283420AD16B4607331B78DB00D318596000221E4B1A5462B634E06B46DA1DDB790133DBB213706B4607331B78DBB2042BDFD900226B46DA711DE06B46B5
:4008000007331B78DB00114A9B5CDBB2FF2B0ED16B46DA7907330D4CD20010551B78DB00E318596000220A4B1A5462B60CE06B46DA1DDB790133DBB213706B4607331B7891
:40084000DBB2042BDBD962B602B010BD4001002068010020FEE7C04670B50F4E0F4D13E029686B68AC68002202E001C901C30432A242FAD1E868002202E0002102C304326C
:400880008242FAD11035013E002EE9D101F0DEF8FFF700FDFEE7C046010000002C1C000008B500230AE0032B03D89A000A49505800E00A4899000A4A885001332F2BF2D997
:4008C000FFF7FAFB0022074B1A608022D205116801230B43136008BD000000005508000000000020C0000020F0B50025002711E0BB00C658F3B2FF22964308E06A008A18D8
:400900001478A419527822700135013BDBB2002BF4D10137052FEBD9F0BDC04608B50A1C002101F0B9F808BD08B500F037F808BD08B500F059F808BD08B5044A136880214A
:4009400009060B431360FFF7EFFF08BD0000064008B5064B1B78002B04D1FFF7E9FF0122024B1A70FFF7E8FF08BDC04614010020044B1B680F221340082BF9D0024B18604B
:400980007047C0460802064040020640024B1B680F2018407047C04608020640084B1A68F02109010A431A601A68F02109020A431A60044A11680F230B4313607047C046AB
:4009C000100001400000014005490A68054B13408006C02212051040184308607047C04620000640FFFFFFF308B5104A104B1A60104A114B1A60114B114A13600721114A94
:400A00001160114A13600023104A1360104A1360104A1360104A1360104A1360104A1360104A13600020FFF7CFFF08BD0F000001000006400100008020000640070100804B
:400A400000030640040306400002064004020640880E0640C80E0640480F0640080F0640C80F0640880F064008B50B2000F0A0FA08BDC04608B500F01DF808BD08B5044A91
:400A80001368802109060B431360FFF7EDFF08BD0000074008B5064B1B78002B04D1FFF7E9FF0122024B1A70FFF7E8FF08BDC0461801002010B51D4A11680C230B4313606D
:400AC00000241B4B1C601B4A1B4B1A601B4B1C4A13601C4A14601C4A14601C4A13601C4B1C600B2000F06EFA0B20032100F088FA0B20184900F072FA174B1C60174B1C6014
:400B0000174B1C601422FF32164B1A60164B1C60164B1C60043AFF3A154B1A70154B1C80154B1C60154B1C6010BDC0467000074000000740770800806000074007010080C7
:400B40000003074004030740100307400002074004020740A9130000C80E0740880E0740480F0740080F0740C80F0740880F0740880100209801002090010020AC0100205F
:400B800010B50B2000F01EFA074B1B889BB21C1C064A1278920601D504241C430B2000F007FA201C10BDC046980100208801002010B50B2000F006FA044B1C88A4B200221C
:400BC0001A800B2000F0F4F9201C10BD9801002010B5204B1C6800F0B9F90028FBD0002000F0BCF91C4A11681C4B0B4013601C4A13685B005B081360A3060FD5002000F0D0
:400C0000ADF90A2000F03AFA012000F0A7F900F0B1F90028FBD00A2000F030FA002000F09DF90A2000F02AFA01220E4B1A600C4A1368802109060B431360074A1168074B06
:400C40000B40E02109030B431360012000F086F910BDC0466400074000000140FFFFF0FF0000074068000740F0B583B001900C1C171C1D1C002919D0284B1B78102B0AD1FE
:400C80000B2000F09FF9264B1B68DB0701D508260FE000260DE0214B1B78602B08D1214A138808218B431380002602E0042600E00426002E2BD12822184B1A7000231A4A8E
:400CC00013601A4A13601A4B1F601A4B1C60EAB2194B1A70019B5C00FF231C40114A138802218B431380154A154B1A604023154A1360154A1360EB0704D5FFF769FF134BA4
:400D00001C6004E0114B1C600222114B1A600B2000F04EF9301C03B0F0BDC0468801002064000740980100209C010020AC010020A8010020A0010020A4010020170300006D
:400D4000000F0740800F0740880F07404002074068000740F0B583B001900C1C171C1D1C002919D02D4B1B78102B0AD10B2000F029F92B4B1B68DB0701D508260FE00026D0
:400D80000DE0264B1B78602B08D1264A138808218B431380002602E0042600E00426002E35D129221D4B1A7000221F4B1A601F4A17601F4B1C60EBB21E490B70019B5C0059
:400DC000FF231C400120044316490B8883430B8019491A4B19601368072B03D80422184B1A6008E0174A1368802149000B4313600822134B1A60EB0704D5FFF7E9FE124B89
:400E00001C6004E0104B1C600222104B1A600B2000F0CEF8301C03B0F0BDC04688010020640007409801002090010020940100208C010020A401002017030000000F07409A
:400E4000C80F0740600007404002074068000740024A117880230B431370704773000F40014B18707047C04603000F40014B18707047C04643000F40014B18707047C0461C
:400E800023000F40014B18707047C04633000F40014B18707047C04683000F40014B1878C0B2704763000F40014B1878C0B2704753000F4008B501E0FFF7F6FFFFF7EEFF80
:400EC000C306F9D408BDC04610B513490B783F229343363A13430B70104C2278012313432370FF20FFF7BCFFFF20FFF7BFFF7F20FFF7C2FFFA20FFF7C5FF0020FFF7C8FFC8
:400F000000F04CF8227810231343237000F04AF8FFF7D0FF10BDC04673000F4093000F4008B5064B1B78002B04D1FFF7CDFF0122024B1A70FFF78CFF08BDC046200100206F
:400F4000014B18707047C04672000F40024B18688006C00F7047C0460400044004490A68EF231A400001DF3B184010430860704700000440024B1868C006C00F7047C04685
:400F800004000440000000000230800804D0C0460138FDD1C046C046C0467047EFF3108072B6704780F310887047C046C046C0461F2318401E3B8340181C014B18607047FB
:400FC00000E100E01F2318401E3B8340181C014B1860704780E100E001BE704738B5041C0D1C1F2802D90020FFF7F6FFA400034B9C4664442068256038BDC04640000020CD
:4010000070B5041C0E1E032E02D90020FFF7E4FF1F2C02D90020FFF7DFFF03252540ED000635FFF7BBFFA408A400074B9C46644423680322AA409343AE40351C1D432560FB
:40104000FFF7B0FF70BDC04600E400E010B5041C06E0084B1868FFF797FF074B9C46644480231B029C42F4D8024B58686043FFF78BFF10BDE00000200080FFFF08B5034BDE
:401080001B7A5843FFF780FF08BDC046E0000020F0B557464E46C0B483B0041CFFF77EFF0190E71E2D2F74D83F4B1B78DBB2A34208D33E4B1B78DBB29A463D4B1B78DBB2D7
:4010C000994631E03B4B1B78DBB2A34208D33A4B1B78DBB29A46394B1B78DBB2994623E0374B1B78DBB2A34208D3364B1B78DBB29A46354B1B78DBB2994615E0334B1B7827
:40110000DBB2A34208D3324B1B78DBB29A46314B1B78DBB2994607E02F4B1B78DBB29A462E4B1B78DBB299462D4BDE5D2F2E09D92A2C07D919222B4B1A600520FFF724FF00
:40114000192503E0274B1D683F231D40AE4206D2234BDA5D234B1A600520FFF715FF1F4B9C4664442378DBB21F4A13601F4B52461A601F4B4A461A600520FFF77FFFAE42A3
:401180000AD9174BDA5D174B1A600520FFF7FCFE02E00020FFF720FF0198FFF703FF03B00CBC91469A46F0BDC0F1FF0FC1F1FF0FC2F1FF0FC3F1FF0FC4F1FF0FC5F1FF0FB2
:4011C000C6F1FF0FC7F1FF0FC8F1FF0FC9F1FF0FCAF1FF0FCBF1FF0FCCF1FF0FCDF1FF0FD81B00002CFF0B4028FF0B401CFF0B4020FF0B40034B1868C0231B02184000D00A
:401200000120704700010B4008B5FFF7C7FE044A1368C02109020B431360FFF7C3FE08BD00010B4010B5FFF7B9FE08490A68084B1A408024E40122430A600A681340802233
:40124000120213430B60FFF7ADFE10BD00010B40FF3FFFFF70B5061CFFF7A0FE041CFFF7C9FF002803D0FFF7DDFF012500E000250848331C0340084A106808490840184352
:4012800010601368012D01D1FFF7BEFF201CFFF789FE70BD0404040010020B40FBFBFBFF10B5244B1B685B0715D5234B1B685B070ED5224B9969042001401F4C22688A4382
:4012C00022609A6982439A61DB68002B00D098470420FFF7BFFF174B1B685B0518D5164B1B685B0510D5154B99698022D2001140114802688A4302609969114A0A409A619E
:401300001B69002B00D098478020C000FFF7A2FF084B1B685B030CD5074B1B685B0304D5064B5B69002B00D098478020C002FFF791FF10BD10020B40F000002024010020E1
:40134000FFFBFFFF014B58647047C0460000002010B5041CFFF722FE044A1168044B0B40A4031C431460FFF71DFE10BD00E400E0FF3FFFFF0222014B1A60704700E100E07A
:401380000222014B1A60704780E100E010B5041CFFF7F6FF201CFFF7D5FF0320FFF7D8FFFFF7E8FF10BDC04610B5C04B1B68002B00D09847BE4B1B68DB0702D50022BD4B39
:4013C0001A60BD4B1B789B0628D5BC4B1B68DB0507D5BB4A1188C0239B000B431380012300E00023B54A1268D20706D5B44A118890239B000B4313800123002B0FD0AE4AB7
:401400001278D20701D5012200E00222AC49088802430A800021A84A117000E00023A64A1278920600D414E1A44A1268D20611D51022A44B1A60A04B1B78DB0701D501236B
:4014400000E002239E4A11880B43138010229A4B1A7029E1984A1278120720D5974A126892070AD50222974B1A60954A118888239B000B431380012311E08F4A1278D2079D
:4014800003D525218C4A117009E024218A4A11708D4A1268002A02D014398C4A1160864A1278520700D4ABE0834A1278D20749D5874A1268120727D5864A12688649096809
:4014C0000F240C40854909686418141B082C09D8002C16D1824A1168824B0B401360012308340EE008240CE07C4A11687E48006841187E480068C0B208701168013111602B
:40150000013C002CF0D119E0714A1268520715D5724A116874480068411874480068C0B2087011680131116011686A4A1268914203D204216E4A116000E001236D496E4A25
:4015400011605DE05D4A1268920726D502225D4B1A606A4A13680F211940136880221202134000D00123CB18654A1168CB1A13601268644B1A60524A118884239B000B43C7
:401580001380614B1A68802149020A431A6019685E4A0A401A60012332E05D4A1268D20612D424E0564A1168474A1268914211D2534A11685748006841180978C9B25648C7
:4015C00001601168013111604C4A12680F210A40082AE7D14A4A11683B4A1268914202D140213A4A11604D494D4A116008E0484A1268520604D5424B1A68424B1A600123F5
:40160000002B51D0364A1168364B0B4013600023444A13602D4A1360434B1B789B070ED5254B1B78DB0701D5092300E00A23244A11880B43138060221F4B1A7034E03B4B86
:401640001B689B0601D5182200E01022284B1A602AE0194B1B78DB0626D4354A13685B005B0813601021144B19701D4B1868314901401960186830490140196000232949B3
:401680000B6012490B601B49254B196023491A4B19602A492A4B19602A490A4B19601368802109060B43136010BDC0461C0100208C0E0740880E0740880100200C0F0740FB
:4016C00098010020000F0740A8010020880F0740CC0F074094010020080307409001002060000740FFFEFFFF8C0100204003074068000740ED0F0000C00F0740080207406F
:401700009C010020AC01002004020740FFFFFEFF8C0F0740A001002040020740F3070000800F0740C80F0740A40100206400074000000740FF5FFFFFFFFCFFFFFF0F0000A3
:40174000400F074017030000002243088B4274D303098B425FD3030A8B4244D3030B8B4228D3030C8B420DD3FF22090212BA030C8B4202D31212090265D0030B8B4219D3D6
:4017800000E0090AC30B8B4201D3CB03C01A5241830B8B4201D38B03C01A5241430B8B4201D34B03C01A5241030B8B4201D30B03C01A5241C30A8B4201D3CB02C01A5241E6
:4017C000830A8B4201D38B02C01A5241430A8B4201D34B02C01A5241030A8B4201D30B02C01A5241CDD2C3098B4201D3CB01C01A524183098B4201D38B01C01A524143093A
:401800008B4201D34B01C01A524103098B4201D30B01C01A5241C3088B4201D3CB00C01A524183088B4201D38B00C01A524143088B4201D34B00C01A5241411A00D2014648
:40184000524110467047FFE701B5002000F0FCF802BDC0460029F7D003B5FFF775FF0EBC4243891A1847C04603460B437FD4002243088B4274D303098B425FD3030A8B42AA
:4018800044D3030B8B4228D3030C8B420DD3FF22090212BA030C8B4202D31212090265D0030B8B4219D300E0090AC30B8B4201D3CB03C01A5241830B8B4201D38B03C01A77
:4018C0005241430B8B4201D34B03C01A5241030B8B4201D30B03C01A5241C30A8B4201D3CB02C01A5241830A8B4201D38B02C01A5241430A8B4201D34B02C01A5241030AFC
:401900008B4201D30B02C01A5241CDD2C3098B4201D3CB01C01A524183098B4201D38B01C01A524143098B4201D34B01C01A524103098B4201D30B01C01A5241C3088B42BD
:4019400001D3CB00C01A524183088B4201D38B00C01A524143088B4201D34B00C01A5241411A00D201465241104670475DE0CA0F00D04942031000D34042534000229C460F
:4019800003098B422DD3030A8B4212D3FC22890112BA030A8B420CD3890192118B4208D3890192118B4204D389013AD0921100E08909C3098B4201D3CB01C01A52418309E1
:4019C0008B4201D38B01C01A524143098B4201D34B01C01A524103098B4201D30B01C01A5241C3088B4201D3CB00C01A524183088B4201D38B00C01A5241D9D243088B42F6
:401A000001D34B00C01A5241411A00D20146634652415B10104601D34042002B00D54942704763465B1000D3404201B5002000F00BF802BD0029F8D003B5FFF715FF0EBCA3
:401A40004243891A1847C0467047C0460E4B70B500251E1C0D4CE41AA410A54204D0AB00F35898470135F8E700F0CEF8084B00251E1C084CE41AA410A54204D0AB00F35870
:401A800098470135F8E770BD141C0000141C0000141C00001C1C0000031C8218934202D019700133FAE770470000000000300F40000400400F40000401000F4041320F4060
:401AC00031330F4002400F400D410F4002600F40830F030709060B01110313041E012A012E013101340135043702382039A23E103F51580459045B045F01860C87058C01EC
:401B00008F0294049B01A304A603B002B104B208B304B404B502B601B701BF04C020C105C5D1C650C720C82BC9FFCAFFCBFFCDA0CF04D018D280D407D804D904DA04DB04C5
:401B4000DF01E040E2C0E440E540E6C0E8C0EAC0ECC0EEC0004003200A200F0110201550184019501A201E08200422062301265027802A013320370138043B403E103F014D
:401B800040044822490150025201532059515A086D506E106F01734086508A028E048F80C005C284C4C4CA01CC84CEAAD004D208D60FE240E6306F01DA8053805B2063023A
:401BC0006410841087018B018FA09F01D4A0D640D880E65010011101030405060708090A0B0C0E0F101112131415161718191B1C1D1E1F2021222325262728292A2B2E2FFE
:401C00003031323334350000F8B5C046F8BC08BC9E4670475D020000A1080000F8B5C046F8BC08BC9E46704735020000401C0000C800002030000000B8000000000000007E
:401C400000000000400000000A0A0000C0F9A4B0999282F8809000000000E02EC05D00001800000000366E010404040000000000000000000000000000000000000000005A
:401C80000000000000000000000000000000000000000000000000000000000000000000000000000000000000000000000000000000000000000000000000000000000024
:401CC00000000000000000000000000000000000000000000000000000000000000000000000000000000000000000000000000000000000000000000000000000000000E4
:401D000000000000000000000000000000000000000000000000000000000000000000000000000000000000000000000000000000000000000000000000000000000000A3
:401D40000000000000000000000000000000000000000000000000000000000000000000000000000000000000000000000000000000000000000000000000000000000063
:0200000490303A
:02000000736526
:0200000490402A
:200000000000000000000000000000000000000000000000000000000000000000000000E0
:0200000490501A
:0C000000000204C81193110104D184F81F
:0200000490600A
:0100000001FE
:00000001FF